:100000000C942A000C943F000C943F000C943F0089
:100010000C943F000C943F000C943F000C943F0064
:100020000C943F000C943F000C943F000C943F0054
:100030000C943F000C943F000C943F000C943F0044
:100040000C943F000C943F000C943F000C943F0034
:100050000C943F0011241FBECFE5D4E0DEBFCDBF1E
:1000600011E0A0E6B0E0E6E2F3E102C005900D92F7
:10007000AC3FB107D9F70E945E010C9491090C9432
:1000800000009EE02DE03BE047E095BBEFE0F7E2AB
:100090003197F1F700C0000086B38E3F29F486B394
:1000A0008E3FE9F381E0089586B38D3F29F486B34E
:1000B0008D3FE9F384E0089586B38B3F29F486B33E
:1000C0008B3FE9F387E0089586B3873F29F486B331
:1000D000873FE9F383E2089525BBEFE0F7E231972C
:1000E000F1F700C0000086B38E3F29F486B38E3F3F
:1000F000E9F382E0089586B38D3F29F486B38D3FFE
:10010000E9F385E0089586B38B3F29F486B38B3FEE
:10011000E9F388E0089586B3873F29F486B3873FE3
:10012000E9F380E0089535BBEFE0F7E23197F1F7AE
:1001300000C0000086B38E3F29F486B38E3FE9F3FA
:1001400083E0089586B38D3F29F486B38D3FE9F3AC
:1001500086E0089586B38B3F29F486B38B3FE9F39D
:1001600089E0089586B3873F29F486B3873FE9F392
:100170008AE2089545BBEFE0F7E23197F1F700C05E
:10018000000086B38E3F29F486B38E3FE9F38BE0FF
:10019000089586B38D3F29F486B38D3FE9F386E158
:1001A000089586B38B3F29F486B38B3FE9F381E250
:1001B000089586B3873F09F068CF86B3873FE9F398
:1001C0008CE20895982F907F95609BBB9AE19A9559
:1001D000F1F700C09BB394509BBB9AE19A95F1F75D
:1001E00000C08295807F85608BBB8AE18A95F1F79C
:1001F00000C08BB384508BBB0895982F907F946080
:100200009BBB9AE19A95F1F700C09BB394509BBBBE
:100210009AE19A95F1F700C08295807F84608BBB4C
:100220008AE18A95F1F700C08BB384508BBB0895A7
:1002300082E00E94FD0088E20E94FD008CE00E94A6
:10024000FD000895CF93DF93EC018881882331F07E
:1002500021960E94E20089918823D9F7DF91CF91FE
:100260000895CF92DF92EF92FF920F931F93CF9357
:10027000DF93EC01009721F480E30E94E20015C0B7
:100280000AE010E084E00E94FD00CE01B8010E9467
:100290005509E62EF72E805D0E94E200CE2CE60185
:1002A0006E01DF2CE601209769F7DF91CF911F9156
:1002B0000F91FF90EF90DF90CF9008952F923F9293
:1002C0004F925F926F927F928F929F92AF92BF9266
:1002D000CF92DF92EF92FF920F931F93DF93CF9312
:1002E000CDB7DEB7C652D1400FB6F894DEBF0FBE11
:1002F000CDBF90EF97BB8FEF8ABB84BB81BB88BB20
:10030000FE013D96DF011D929A95E9F70E941801C2
:10031000EDEFF0E0EC0FFD1F3496C35EDE4FF98386
:10032000E883CD51D1406E010894C11CD11CC60197
:10033000C95EDE4FC882C751D140C85EDE4F988388
:10034000C851D14025E031E02C0F3D1F2C5F3F4FBD
:10035000C75EDE4F39832883C951D14049E051E05F
:100360004C0F5D1F485F5F4FCD5DDE4F5983488363
:10037000C352D140C55EDE4FC882CB51D140C45E6E
:10038000DE4F9883CC51D14081EE90E0CD5EDE4FC0
:100390008883C351D140CC5EDE4F9883C451D14095
:1003A000CA01CB5DDE4F4883C552D140CA5DDE4FE6
:1003B0009883C652D14081E00E94FD008FE19EE407
:1003C0000197F1F700C0000083E80E94FD0080E67D
:1003D00090E00E94220184E90E94FD008FE690E0F7
:1003E0000E94220184ED0E94FD0080E890E00E94BE
:1003F00022012FEF30E742E0215030404040E1F74A
:1004000000C000000E94410090E08631910509F093
:1004100002C481E00E94FD008FE19EE40197F1F7A4
:1004200000C0000083E80E94FD0080E690E00E948A
:10043000220184E90E94FD008CE890E00E942201E4
:1004400084ED0E94FD0088E990E00E9422018E0167
:1004500003501F4FC35EDE4FE880F980CD51D1407D
:100460000E944100D8018D938D0189EA90E00E949D
:1004700022010E151F05A1F7EFE5FAEE3197F1F70E
:1004800000C00000C350DF4F8881CD5FD04088237B
:10049000A9F4C250DF4F8881CE5FD040882371F429
:1004A000C150DF4F8881CF5FD040882339F4C050DE
:1004B000DF4F8881C050D140882309F181E00E943C
:1004C000FD008FE19EE40197F1F700C0000083E892
:1004D0000E94FD0080E690E00E94220184E90E94D3
:1004E000FD008BEA90E00E9422012FEF31EE44E004
:1004F000215030404040E1F700C000005CCF0F2E9B
:10050000F0E68F2EF0E09F2EF02D0F2EFDE0AF2EA7
:10051000BB24F02DAC0EBD1E0F2EF3EE2F2EF0E0FF
:100520003F2EF02D81E00E94FD008FE19EE40197B7
:10053000F1F700C0000083E80E94FD00C4010E94A2
:10054000220184E90E94FD008EEB90E00E942201CE
:1005500084ED0E94FD0088EC90E00E9422010E9440
:10056000410090E08B30910509F072C281E00E9459
:10057000FD00AFE1BEE41197F1F700C0000083E891
:100580000E94FD00C4010E94220184E90E94FD0036
:1005900085ED90E00E942201C95EDE4FE880C751E0
:1005A000D140C85EDE4FF880C851D1408E010B5F4C
:1005B0001F4FCD5EDE4F4880C351D140CC5EDE4F31
:1005C0006880C451D1400E944100F70181937F01AE
:1005D000842D962D0E9422018FE19EE40197F1F770
:1005E00000C00000E016F10671F7EE24FF2400E0E1
:1005F00010E06624772401C08301C701880F991F8A
:100600008E0D9F1D880F991F880F991F800F911FB6
:100610000E947C09F601E00FF11F208130E090E09C
:100620002817390731F40F5F1F4F043011052CF3E1
:1006300008C00894E11CF11C95E1E916F104E4F20C
:10064000E7C181E00E94FD00AFE1BEE41197F1F740
:1006500000C0000083E80E94FD00C4010E94220146
:1006600084E90E94FD00C1010E94220184EC0E94E5
:10067000FD0080EF90E00E94220184ED0E94FD00C9
:100680008CEF90E00E9422010F2EF1EA6F2E77246A
:10069000F02D00E010E00E944100482E5524B6E104
:1006A0004B16510471F0E1E0F1E0EC0FFD1FE00F9B
:1006B000F11F8083862D0E94FD00C2010E9431013E
:1006C00099C1E114F10431F4CF5FDE4F1882C150BB
:1006D000D14090C1862D0E94FD0080E091E00E94F3
:1006E0002201862D8F5F0E94FD0082E091E00E9432
:1006F00022012FEF30E742E0215030404040E1F747
:1007000000C0000081E00E94FD008FE19EE401979F
:10071000F1F700C0000083E80E94FD00C4010E94C0
:10072000220184ED0E94FD0084E091E00E942201FC
:100730002FEF31EE44E0215030404040E1F700C05F
:1007400000000430110551F00330110581F0023032
:100750001105B1F00130110521F51BC048EE53E041
:10076000CF5DDE4F59834883C152D1401AC064E641
:1007700070E0CF5DDE4F79836883C152D14011C0F4
:100780008AE090E0CF5DDE4F99838883C152D140EB
:1007900008C0A1E0B0E0CF5DDE4FB983A883C152AD
:1007A000D1408701045C1F4F000F111F000F111F64
:1007B0000F2EF5E06F2EF1E07F2EF02D6C0E7D1EDA
:1007C000C8010E947C09F30181933F010F5F1F4F15
:1007D000C75EDE4F28813981C951D140E217F30746
:1007E00079F7CF5DDE4F88819981C152D1406AE0AF
:1007F00070E00E945509CE5FDE4F8881C250D14023
:1008000090E0689FF001699FF00D789FF00D112432
:10081000CF5DDE4F88819981C152D14068EE73E08F
:100820000E945509CC5FDE4F2881C450D14030E092
:10083000629FC001639F900D729F900D1124E80F7D
:10084000F91FCF5FDE4F2881C150D14030E0CF5D2E
:10085000DE4F48815981C152D140429FC001439F20
:10086000900D529F900D1124E80FF91FCA0164E604
:1008700070E00E945509CD5FDE4F2881C350D14002
:1008800030E0629FC001639F900D729F900D112414
:100890008E0F9F1FCB5FDE4F4881C550D140CA5F8E
:1008A000DE4FA881C650D140C95FDE4FE881C750F6
:1008B000D140C85FDE4FF881C850D14053E189383C
:1008C00095070CF077C050E028EE33E0429FB0016E
:1008D000439F700D529F700D112424E6A29F90013A
:1008E0001124AB01420F531F4F0F511D2AE0E29F0D
:1008F00090011124240F351F8901080F191F81E071
:100900000E94FD008FE19EE40197F1F700C0000016
:1009100083E80E94FD00C4010E94220184E90E9434
:10092000FD0082E191E00E94220185EA0E94FD0023
:10093000C8010E943101CB5DDE4FE881C552D14034
:10094000CA5DDE4FF881C652D1402AE030E0C801CE
:1009500007C0B9010E94550992938293862F972F61
:100960000097B9F78E01075F1E4FEE0CFF1CEE0CCF
:10097000FF1CA0EFB0E0EA0EFB1EF80160810E5FE5
:100980001F4FC7010E9484090894E11CF11CCD5D32
:10099000DE4F28813981C352D1400217130769F70E
:1009A0004FEF53EC69E0415050406040E1F700C028
:1009B0000000B8CD81E00E94FD008FE19EE4019728
:1009C000F1F700C0000083E80E94FD00C4010E940E
:1009D000220184E90E94FD0081E291E00E9422014F
:1009E0002FEF32E547E0215030404040E1F700C0B2
:1009F000000098CD0F5F1F4F0530110509F492CD0F
:100A00000894611C711C0630110509F044CE8ACD92
:100A100081E00E94FD008FE19EE40197F1F700C0A4
:100A2000000083E80E94FD00C4010E94220184E9C5
:100A30000E94FD0084E391E00E9422012FEF31EE3D
:100A400044E0215030404040E1F700C000006ACD52
:100A50008631910509F0DAC081E00E94FD008FE146
:100A60009EE40197F1F700C0000083E80E94FD00BA
:100A7000C4010E94220184E90E94FD0081E491E00A
:100A80000E942201C95EDE4F6880C751D140C85E16
:100A9000DE4F7880C851D1400F2EF5E04F2E5524FF
:100AA000F02D4C0E5D1EC55EDE4F0881CB51D1404E
:100AB000C45EDE4F1881CC51D140CD5EDE4FF88050
:100AC000C351D140CC5EDE4FE880C451D1400E947A
:100AD0004100D8018D938D018F2D9E2D0E94220102
:100AE000EFE1FEE43197F1F700C0000004151505B1
:100AF00071F7EE24FF24E39400E010E002C000E070
:100B000010E0C701880F991F8E0D9F1D880F991F38
:100B1000880F991F800F911F0E947C09F501E00F3B
:100B2000F11F208130E090E02817390731F40F5F82
:100B30001F4F043011052CF307C00894E11CF11C71
:100B4000F5E1EF16F104DCF281E00E94FD008FE197
:100B50009EE40197F1F700C0000083E80E94FD00C9
:100B6000C4010E94220184E90E94FD0081E591E018
:100B70000E942201C701880F991FE80EF91EEE0C92
:100B8000FF1CEE0CFF1CCD5EDE4F1881C351D1401F
:100B9000CC5EDE4F0881C451D140D3016D913D013F
:100BA000C7010E948409812F902F0E9422012FEFFC
:100BB00039EF40E0215030404040E1F700C00000F4
:100BC0000894E11CF11C6414750439F781E00E945B
:100BD000FD008FE19EE40197F1F700C0000083E87B
:100BE0000E94FD00C4010E94220184E90E94FD00D0
:100BF00082E691E00E9422012FEF32E547E021508A
:100C000030404040E1F700C000008CCC8C329105B0
:100C100009F088CCD0CB8B30910509F0CCCB81E0AA
:100C20000E94FD008FE19EE40197F1F700C00000F3
:100C300083E80E94FD0080E690E00E94220186EC9D
:100C40000E94FD0085E791E00E94220184E90E9454
:100C5000FD0085ED90E00E94220176018E010B5F80
:100C60001F4F0E944100D7018D937D0181EE90E0DE
:100C70000E942201E016F106A1F7EE24FF2400E015
:100C800010E0AA24BB2401C08501C701880F991F69
:100C90008E0D9F1D880F991F880F991F800F911F20
:100CA0000E947C09F601E00FF11F208130E090E006
:100CB0002817390731F40F5F1F4F043011052CF34B
:100CC00008C00894E11CF11CB5E1EB16F104E4F254
:100CD000BBC2C701CC961C01220C331C220C331C56
:100CE0000F2EF0E68F2EF0E09F2EF02D0F2EFDE759
:100CF0006F2EF1E07F2EF02D0F2EFBE84F2EF1E04E
:100D00005F2EF02DC101CF5EDE4F2882C151D14050
:100D1000CE5EDE4F9883C251D14081E00E94FD003B
:100D2000EFE1FEE43197F1F700C0000083E80E9494
:100D3000FD00C4010E94220184E90E94FD00C3015C
:100D40000E94220184ED0E94FD00C2010E94220146
:100D50000E94410090E08B30910509F083C081E052
:100D60000E94FD008FE19EE40197F1F700C00000B2
:100D700083E80E94FD00C4010E94220184E90E94D0
:100D8000FD008BE991E00E942201CF5EDE4F0881D9
:100D9000C151D140CE5EDE4F1881C251D1400F2EDD
:100DA000F5E0AF2EF1E0BF2EF02DAC0EBD1ECB5EF8
:100DB000DE4F39822882C551D1401701C75EDE4F10
:100DC000E880F980C951D140C8010E947C09D50151
:100DD0008D935D010F5F1F4FAE15BF05A9F7710120
:100DE000CB5EDE4F28803980C551D140CB5FDE4FCE
:100DF0008881C550D14090E0E8EEF3E08E9F8001FD
:100E00008F9F100D9E9F100D1124CA5FDE4F8881A9
:100E1000C650D140F4E68F9FC0011124800F911F6E
:100E2000C85FDE4F2881C850D140820F911DC95F35
:100E3000DE4F0881C750D1402AE0029F8001112473
:100E4000080F191F89ED0E94FD00C8010E943101A1
:100E50004FEF52E567E0415050406040E1F700C07D
:100E600000005BCF8C32910509F4A5CA863191054B
:100E700009F053CF81E00E94FD008FE19EE40197CD
:100E8000F1F700C0000083E80E94FD0080E690E0DA
:100E90000E94220184E90E94FD008DEA91E00E94F7
:100EA000220184ED0E94FD008FEB91E00E9422015F
:100EB0000F2EF0EE8F2E9924F02D00E010E0570158
:100EC0000E944100E82EFF2496E1E916F10471F03A
:100ED000E1E0F1E0EC0FFD1FE00FF11F8083882DB2
:100EE0000E94FD00C7010E943101A0C1A114B104FC
:100EF00069F4CF5FDE4F1882C150D14080EA0E9472
:100F0000FD0080E090E00E94310190C17501882DC4
:100F10000E94FD0080E091E00E942201882D8F5FF9
:100F20000E94FD0082E091E00E9422012FEF30E755
:100F300042E0215030404040E1F700C0000081E035
:100F40000E94FD008FE19EE40197F1F700C00000D0
:100F500083E80E94FD0080E690E00E94220184ED7B
:100F60000E94FD0084E091E00E9422012FE739EA0F
:100F700043E0215030404040E1F700C00000043021
:100F8000110551F00330110581F002301105B1F067
:100F90000130110521F51BC048EE53E0C15EDE4F64
:100FA00059834883CF51D1401AC064E670E0C15ED6
:100FB000DE4F79836883CF51D14011C08AE090E041
:100FC000C15EDE4F99838883CF51D14008C0A1E034
:100FD000B0E0C15EDE4FB983A883CF51D1408E010E
:100FE0000B5F1E4FC1010E947C09F80181938F01A4
:100FF0000894211C311CC75EDE4F28813981C951FC
:10100000D140E217F30771F7C15EDE4F8881998105
:10101000CF51D1406AE070E00E945509CE5FDE4FAB
:101020008881C250D14090E0689FF001699FF00D27
:10103000789FF00D112428EE33E0C15EDE4F8881E9
:101040009981CF51D140B9010E945509CC5FDE4F43
:101050004881C450D14050E0649FC001659F900D0D
:10106000749F900D1124E80FF91FCF5FDE4F888128
:10107000C150D14090E0C15EDE4F68817981CF518F
:10108000D140689FA001699F500D789F500D112499
:10109000E40FF51FCB0164E670E00E945509CD5FB7
:1010A000DE4F4881C350D14050E0649FC001659F2E
:1010B000900D749F900D11248E0F9F1FCB5FDE4FFC
:1010C0006881C550D14070E0629FA001639F500DC0
:1010D000729F500D1124CA5FDE4F3881C650D14037
:1010E00024E6329F90011124420F531FC85FDE4F48
:1010F0002881C850D140420F511DC95FDE4F388151
:10110000C750D1402AE0329F90011124240F351F8F
:10111000281739070CF462C08901081B190B81E0FC
:101120000E94FD008FE19EE40197F1F700C00000EE
:1011300083E80E94FD0080E690E00E94220184E99D
:101140000E94FD0083EC91E00E94220184ED0E9448
:10115000FD008DEC91E00E94220184EE0E94FD00D2
:10116000C8010E943101CD5DDE4FE881F981C35293
:10117000D1402AE030E0C80107C0B9010E945509FA
:1011800092938293862F972F0097B9F78E01075F6E
:101190001E4FEE0CFF1CEE0CFF1CA0EFB0E0EA0EA1
:1011A000FB1EF80160810E5F1F4FC7010E9484097A
:1011B0000894E11CF11CCD5DDE4F28813981C352BA
:1011C000D1400217130769F74FEF53EC69E0415024
:1011D00050406040E1F700C00000EDC881E00E948F
:1011E000FD008FE19EE40197F1F700C0000083E865
:1011F0000E94FD0080E690E00E94220184E90E94A6
:10120000FD0089ED91E00E94220185ED0E94FD0024
:1012100088EE91E00E9422012FEF33EC49E021504B
:1012200030404040E1F700C00000C5C80F5F1F4FCD
:101230000530110509F4BFC80894811C911C0630C3
:10124000110509F03DCEB7C881E00E94FD008FE195
:101250009EE40197F1F700C0000083E80E94FD00C2
:1012600080E690E00E94220184E90E94FD0084E370
:1012700091E00E9422012FEF32E547E021503040FB
:101280004040E1F700C0000096C883E389B910BC74
:1012900088E18AB98EE880BD08955D9BFECF8CB948
:1012A00008955F9BFECF8CB1089597FB092E07260A
:1012B0000AD077FD04D00CD006D000201AF4709527
:1012C00061957F4F0895F6F7909581959F4F08950A
:1012D000AA1BBB1B51E107C0AA1FBB1FA617B7075C
:1012E00010F0A61BB70B881F991F5A95A9F7809578
:1012F0009095BC01CD010895E199FECF9FBB8EBBB7
:10130000E09A99278DB30895262FE199FECF9FBBD0
:101310008EBB2DBB0FB6F894E29AE19A0FBE0196F0
:061320000895F894FFCFD0
:10132600446F776E20546F776E2043616665004385
:101336007573746F6D6572205365727669636500A7
:1013460041646D696E206C6F67696E0057656C63EA
:101356006F6D652053697200456E74657220506129
:101366007373776F72643A2D002A00496E636F7249
:10137600726563742050617373776F7264004164A1
:1013860064204D6F6E657900416464204E65772058
:101396006361726400496E7365727420436172649E
:1013A600002E00456E74657220416D6F756E740077
:1013B6002A7570746F20353030302A00416464001D
:1013C6002F002D0070726F63657373696E672E2E22
:1013D6002E004E65772042616C616E6365203A2D62
:1013E60000456E7465722056616C696420416D6FAC
:1013F600756E7400496E76616C696420636172640F
:1014060000496E73657274204E657720436172647D
:1014160000536176696E6720596F75722043617259
:1014260064005375636365737366756C6C792053DA
:10143600617665640057656C636F6D65004368652A
:10144600636B2042616C616E63650050726F636509
:101456006564205061796D656E7400596F757220F0
:10146600436172642042616C616E636500456E740F
:1014760065722042696C6C20416D6F756E74005008
:1014860061790042696C6C207061696400416D6F1E
:10149600756E74206C656674005061796D656E7446
:1014A600206661696C6564002A4E6F7420456E6F14
:0C14B600756768204D6F6E65792A000094
:00000001FF
